:100000000C942A000C9434000C9434000C943400AA
:100010000C9434000C9434000C9434000C94340090
:100020000C9434000C9434000C9434000C94340080
:100030000C9434000C9434000C9434000C94340070
:100040000C9434000C9434000C9434000C94340060
:100050000C94340011241FBECFE5D8E0DEBFCDBF25
:100060000E9438050C94C6050C940000CF93DF93D2
:1000700000D000D01F92CDB7DEB78B836C834D8349
:1000800081E090E09A8389838B81843008F0E0C01E
:100090008C81883008F0DCC08D81813009F068C027
:1000A0008B81882F90E08130910511F1823091058C
:1000B0001CF4892B41F0CFC08230910571F1039778
:1000C00009F440C0C8C08AE390E02AE330E0F901B7
:1000D0002081622F2C81422F50E021E030E002C0CD
:1000E000220F331F4A95E2F7262BFC012083AFC075
:1000F00087E390E027E330E0F9012081622F2C8133
:10010000422F50E021E030E002C0220F331F4A9519
:10011000E2F7262BFC0120839AC084E390E024E3DD
:1001200030E0F9012081622F2C81422F50E021E044
:1001300030E002C0220F331F4A95E2F7262BFC0164
:10014000208385C081E390E021E330E0F901208144
:10015000622F2C81422F50E021E030E002C0220FBC
:10016000331F4A95E2F7262BFC01208300006FC065
:100170008D81882309F06FC08B81882F90E08130BA
:10018000910519F1823091051CF4892B41F063C06F
:100190008230910581F1039709F443C05CC08AE382
:1001A00090E02AE330E0F9012081622F2C81422F78
:1001B00050E021E030E002C0220F331F4A95E2F701
:1001C00020952623FC01208342C087E390E027E3AB
:1001D00030E0F9012081622F2C81422F50E021E094
:1001E00030E002C0220F331F4A95E2F72095262304
:1001F000FC0120832CC084E390E024E330E0F9018B
:100200002081622F2C81422F50E021E030E002C09B
:10021000220F331F4A95E2F720952623FC01208305
:1002200016C081E390E021E330E0F9012081622FE4
:100230002C81422F50E021E030E002C0220F331F1A
:100240004A95E2F720952623FC012083000003C095
:100250001A82198201C0000089819A810F900F9043
:100260000F900F900F90DF91CF910895CF93DF9370
:1002700000D000D01F92CDB7DEB78B836C834D8347
:1002800081E090E09A8389838B81843008F0E0C01C
:100290008C81883008F0DCC08D81813009F068C025
:1002A0008B81882F90E08130910511F1823091058A
:1002B0001CF4892B41F0CFC08230910571F1039776
:1002C00009F440C0C8C08BE390E02BE330E0F901B3
:1002D0002081622F2C81422F50E021E030E002C0CB
:1002E000220F331F4A95E2F7262BFC012083AFC073
:1002F00088E390E028E330E0F9012081622F2C812F
:10030000422F50E021E030E002C0220F331F4A9517
:10031000E2F7262BFC0120839AC085E390E025E3D9
:1003200030E0F9012081622F2C81422F50E021E042
:1003300030E002C0220F331F4A95E2F7262BFC0162
:10034000208385C082E390E022E330E0F901208140
:10035000622F2C81422F50E021E030E002C0220FBA
:10036000331F4A95E2F7262BFC01208300006FC063
:100370008D81882309F06FC08B81882F90E08130B8
:10038000910519F1823091051CF4892B41F063C06D
:100390008230910581F1039709F443C05CC08BE37F
:1003A00090E02BE330E0F9012081622F2C81422F75
:1003B00050E021E030E002C0220F331F4A95E2F7FF
:1003C00020952623FC01208342C088E390E028E3A7
:1003D00030E0F9012081622F2C81422F50E021E092
:1003E00030E002C0220F331F4A95E2F72095262302
:1003F000FC0120832CC085E390E025E330E0F90187
:100400002081622F2C81422F50E021E030E002C099
:10041000220F331F4A95E2F720952623FC01208303
:1004200016C082E390E022E330E0F9012081622FE0
:100430002C81422F50E021E030E002C0220F331F18
:100440004A95E2F720952623FC012083000003C093
:100450001A82198201C0000089819A810F900F9041
:100460000F900F900F90DF91CF910895CF93DF936E
:1004700000D000D000D0CDB7DEB78B836C835E8315
:100480004D8381E090E09A8389838B81843008F0EA
:1004900099C08C81883008F095C08B81882F90E0BE
:1004A0008130910571F1823091051CF4892B49F05E
:1004B0008BC08230910509F444C0039709F461C0F0
:1004C00083C089E390E0FC018081282F30E08C819B
:1004D000482F50E081E090E002C0880F991F4A95B4
:1004E000E2F7822393232C81222F30E002C09595DE
:1004F00087952A95E2F7282F8D819E81FC01208324
:1005000060C086E390E0FC018081282F30E08C8180
:10051000482F50E081E090E002C0880F991F4A9573
:10052000E2F7822393232C81222F30E002C095959D
:1005300087952A95E2F7282F8D819E81FC012083E3
:1005400040C083E390E0FC018081282F30E08C8163
:10055000482F50E081E090E002C0880F991F4A9533
:10056000E2F7822393232C81222F30E002C095955D
:1005700087952A95E2F7282F8D819E81FC012083A3
:1005800020C080E390E0FC018081282F30E08C8146
:10059000482F50E081E090E002C0880F991F4A95F3
:1005A000E2F7822393232C81222F30E002C095951D
:1005B00087952A95E2F7282F8D819E81FC01208363
:1005C000000002C01A82198289819A8126960FB68C
:1005D000F894DEBF0FBECDBFDF91CF910895CF93CA
:1005E000DF9300D000D0CDB7DEB78B836C8381E082
:1005F00090E09A8389838B81843008F06CC08C8171
:10060000883008F068C08B81882F90E08130910598
:1006100011F1823091051CF4892B41F05EC08230CB
:10062000910571F1039709F440C057C08BE390E046
:100630002BE330E0F9012081622F2C81422F50E022
:1006400021E030E002C0220F331F4A95E2F726274F
:10065000FC0120833FC088E390E028E330E0F9010B
:100660002081622F2C81422F50E021E030E002C037
:10067000220F331F4A95E2F72627FC0120832AC068
:1006800085E390E025E330E0F9012081622F2C81A1
:10069000422F50E021E030E002C0220F331F4A9584
:1006A000E2F72627FC01208315C082E390E022E3D5
:1006B00030E0F9012081622F2C81422F50E021E0AF
:1006C00030E002C0220F331F4A95E2F72627FC01D3
:1006D0002083000002C01A82198289819A810F90BA
:1006E0000F900F900F90DF91CF910895CF93DF93EC
:1006F00000D000D0CDB7DEB78B836C8381E090E073
:100700009A8389838B81843008F078C08C81813012
:10071000D9F58B81882F90E081309105B1F082303E
:1007200091051CF4892B39F06BC082309105B9F02A
:100730000397F9F065C08AE390E0FC0180818AE3C9
:1007400090E02FEFFC0120835BC087E390E0FC0189
:10075000808187E390E02FEFFC01208351C084E388
:1007600090E0FC01808184E390E02FEFFC01208386
:1007700047C081E390E0FC01808181E390E02FEFAE
:10078000FC01208300003CC08C818823C9F58B814B
:10079000882F90E081309105A9F0823091051CF4FA
:1007A000892B39F02DC082309105A9F00397E1F033
:1007B00027C08AE390E0FC0180818AE390E0FC019D
:1007C00010821EC087E390E0FC01808187E390E007
:1007D000FC01108215C084E390E0FC01808184E379
:1007E00090E0FC0110820CC081E390E0FC0180816C
:1007F00081E390E0FC011082000002C01A8219829D
:1008000089819A810F900F900F900F90DF91CF9177
:100810000895CF93DF9300D000D0CDB7DEB78B83A0
:100820006C8381E090E09A8389838B81843008F027
:1008300078C08C818130D9F58B81882F90E0813010
:100840009105B1F0823091051CF4892B39F06BC011
:1008500082309105B9F00397F9F065C08BE390E021
:10086000FC0180818BE390E02FEFFC0120835BC0D3
:1008700088E390E0FC01808188E390E02FEFFC01A9
:10088000208351C085E390E0FC01808185E390E006
:100890002FEFFC01208347C082E390E0FC018081C0
:1008A00082E390E02FEFFC01208300003CC08C81AC
:1008B0008823C9F58B81882F90E081309105A9F0BC
:1008C000823091051CF4892B39F02DC082309105BE
:1008D000A9F00397E1F027C08BE390E0FC01808151
:1008E0008BE390E0FC0110821EC088E390E0FC01E5
:1008F000808188E390E0FC01108215C085E390E0E0
:10090000FC01808185E390E0FC0110820CC082E351
:1009100090E0FC01808182E390E0FC011082000005
:1009200002C01A82198289819A810F900F900F90CC
:100930000F90DF91CF910895CF93DF9300D000D037
:100940001F92CDB7DEB78B837D836C8381E090E00F
:100950009A8389838B818430B8F58B81882F90E0CE
:1009600081309105A9F0823091051CF4892B39F072
:100970002DC082309105A9F00397E1F027C089E3EB
:1009800090E0FC0120818C819D81FC0120831EC0B0
:1009900086E390E0FC0120818C819D81FC01208315
:1009A00015C083E390E0FC0120818C819D81FC01D6
:1009B00020830CC080E390E0FC0120818C819D812C
:1009C000FC012083000002C01A82198289819A8169
:1009D0000F900F900F900F900F90DF91CF9108958F
:1009E000CF93DF931F92CDB7DEB78983898184309F
:1009F000D0F58981882F90E081309105B1F0823067
:100A000091051CF4892B39F02EC082309105B9F084
:100A10000397F9F028C08BE390E02BE330E0F90175
:100A200020812095FC0120831EC088E390E028E30C
:100A300030E0F90120812095FC01208314C085E37A
:100A400090E025E330E0F90120812095FC0120832E
:100A50000AC082E390E022E330E0F9012081209592
:100A6000FC012083000000000F90DF91CF910895DA
:100A7000CF93DF93CDB7DEB761E080E00E947603CD
:100A800061E083E00E94760361E080E00E94090457
:100A900060E083E00E94090461E070E080E090E0A3
:100AA0000E94610560E080E00E94090461E083E04B
:100AB0000E94090461E070E080E090E00E9461051E
:100AC000E3CFCF93DF93CDB7DEB728970FB6F89477
:100AD000DEBF0FBECDBF6D837E838F8398871A8262
:100AE00019821C821B822D813E814F8158858CED9D
:100AF00095E0DC010E94AC05DC01CB018D839E8377
:100B0000AF83B88710C000008B819C8101969C83C5
:100B10008B838B819C818C399346ACF389819A813C
:100B200001969A83898389819A819C01990F440B4C
:100B3000550B8D819E81AF81B885281739074A07EB
:100B40005B0738F3000028960FB6F894DEBF0FBE9F
:100B5000CDBFDF91CF9108950E94B705A59F900D5D
:100B6000B49F900DA49F800D911D11240895A29F04
:100B7000B001B39FC001A39F700D811D1124911D71
:100B8000B29F700D811D1124911D0895F894FFCF1F
:00000001FF
