:100000000C942A000C9434000C9434000C943400AA
:100010000C9434000C9434000C9434000C94340090
:100020000C9434000C9434000C9434000C94340080
:100030000C9434000C9434000C9434000C94340070
:100040000C9434000C9434000C9434000C94340060
:100050000C94340011241FBECFE5D8E0DEBFCDBF25
:100060000E941D020C945C020C940000843008F085
:1000700063C0683008F060C0413051F58230B1F0A3
:100080008330E9F0813049F02AB381E090E001C08B
:10009000880F6A95EAF7822B2CC027B381E090E0A5
:1000A00001C0880F6A95EAF7822B2EC024B381E045
:1000B00090E001C0880F6A95EAF7822B30C021B327
:1000C00081E090E001C0880F6A95EAF7822B32C088
:1000D000411135C08230D1F0833019F1813059F0AF
:1000E0002AB381E090E001C0880F6A95EAF7809515
:1000F00082238ABB24C027B381E090E001C0880F2F
:100100006A95EAF78095822387BB19C024B381E002
:1001100090E001C0880F6A95EAF78095822384BB3E
:100120000EC021B381E090E001C0880F6A95EAF724
:100130008095822381BB03C080E090E0089581E038
:1001400090E00895843008F063C0683008F060C023
:10015000413051F58230B1F08330E9F0813049F01F
:100160002BB381E090E001C0880F6A95EAF7822BFB
:100170002CC028B381E090E001C0880F6A95EAF7AF
:10018000822B2EC025B381E090E001C0880F6A95D4
:10019000EAF7822B30C022B381E090E001C0880FE3
:1001A0006A95EAF7822B32C0411135C08230D1F016
:1001B000833019F1813059F02BB381E090E001C018
:1001C000880F6A95EAF7809582238BBB24C028B3F9
:1001D00081E090E001C0880F6A95EAF7809582235C
:1001E00088BB19C025B381E090E001C0880F6A95F3
:1001F000EAF78095822385BB0EC022B381E090E0B0
:1002000001C0880F6A95EAF78095822382BB03C0FC
:1002100080E090E0089581E090E00895FA01843054
:1002200018F5683008F5823041F0833041F08130B4
:1002300011F029B305C026B303C023B301C020B316
:1002400081E090E0062E02C0880F991F0A94E2F721
:1002500030E08223932302C0959587956A95E2F753
:10026000808381E090E0089580E090E008958430FC
:1002700090F5683080F58230C1F0833001F1813033
:1002800051F02BB381E090E001C0880F6A95EAF746
:1002900082278BBB1DC028B381E090E001C0880F8E
:1002A0006A95EAF7822788BB13C025B381E090E006
:1002B00001C0880F6A95EAF7822785BB09C022B37F
:1002C00081E090E001C0880F6A95EAF7822782BB3F
:1002D00081E090E0089580E090E00895843060F53A
:1002E0006130B1F4823061F0833071F0813021F0FF
:1002F0008AB38FEF8ABB23C087B38FEF87BB1FC042
:1003000084B38FEF84BB1BC081B38FEF81BB17C059
:10031000611115C0823051F0833059F0813019F0ED
:100320008AB31ABA0CC087B317BA09C084B314BA17
:1003300006C081B311BA03C080E090E0089581E067
:1003400090E00895843060F56130B1F4823061F05E
:10035000833071F0813021F08BB38FEF8BBB23C0E2
:1003600088B38FEF88BB1FC085B38FEF85BB1BC0E1
:1003700082B38FEF82BB17C0611115C0823051F07C
:10038000833059F0813019F08BB31BBA0CC088B39D
:1003900018BA09C085B315BA06C082B312BA03C031
:1003A00080E090E0089581E090E00895FB018430C2
:1003B00088F4823041F0833041F0813011F089B30C
:1003C00005C086B303C083B301C080B3808381E0DE
:1003D00090E0089580E090E008958430A8F48230A1
:1003E00061F0833071F0813021F08BB380958BBB4D
:1003F000089588B3809588BB089585B3809585BBA3
:10040000089582B3809582BB08959B01AC01ACED49
:10041000B5E00E94420220E030E080E090E08617E4
:10042000970751F02C3943E6340721F000002F5F85
:100430003F4FF8CF0196F3CF089561E080E00E942E
:100440006E0161E083E00E946E0161E080E00E9445
:10045000A20160E083E00E94A20161E070E080E020
:1004600090E00E94050260E080E00E94A20161E04D
:1004700083E00E94A20161E070E080E090E00E94D1
:100480000502E3CF0E944D02A59F900DB49F900DF1
:10049000A49F800D911D11240895A29FB001B39FC8
:1004A000C001A39F700D811D1124911DB29F700D7D
:0C04B000811D1124911D0895F894FFCFC8
:00000001FF
